{
  "_format": "hh3-artifact-1",
  "contractName": "Transactions",
  "sourceName": "contracts/Transactions.sol",
  "abi": [
    {
      "anonymous": false,
      "inputs": [
        {
          "indexed": false,
          "internalType": "address",
          "name": "from",
          "type": "address"
        },
        {
          "indexed": false,
          "internalType": "address",
          "name": "receiver",
          "type": "address"
        },
        {
          "indexed": false,
          "internalType": "uint256",
          "name": "amount",
          "type": "uint256"
        },
        {
          "indexed": false,
          "internalType": "string",
          "name": "message",
          "type": "string"
        },
        {
          "indexed": false,
          "internalType": "uint256",
          "name": "timestamp",
          "type": "uint256"
        },
        {
          "indexed": false,
          "internalType": "string",
          "name": "keyword",
          "type": "string"
        }
      ],
      "name": "Transfer",
      "type": "event"
    },
    {
      "inputs": [
        {
          "internalType": "address payable",
          "name": "receiver",
          "type": "address"
        },
        {
          "internalType": "uint256",
          "name": "amount",
          "type": "uint256"
        },
        {
          "internalType": "string",
          "name": "message",
          "type": "string"
        },
        {
          "internalType": "string",
          "name": "keyword",
          "type": "string"
        }
      ],
      "name": "addToBlockchain",
      "outputs": [],
      "stateMutability": "payable",
      "type": "function"
    },
    {
      "inputs": [],
      "name": "getAllTransactions",
      "outputs": [
        {
          "components": [
            {
              "internalType": "address",
              "name": "sender",
              "type": "address"
            },
            {
              "internalType": "address",
              "name": "receiver",
              "type": "address"
            },
            {
              "internalType": "uint256",
              "name": "amount",
              "type": "uint256"
            },
            {
              "internalType": "string",
              "name": "message",
              "type": "string"
            },
            {
              "internalType": "uint256",
              "name": "timestamp",
              "type": "uint256"
            },
            {
              "internalType": "string",
              "name": "keyword",
              "type": "string"
            }
          ],
          "internalType": "struct Transactions.TransferStruct[]",
          "name": "",
          "type": "tuple[]"
        }
      ],
      "stateMutability": "view",
      "type": "function"
    },
    {
      "inputs": [],
      "name": "getTransactionCount",
      "outputs": [
        {
          "internalType": "uint256",
          "name": "",
          "type": "uint256"
        }
      ],
      "stateMutability": "view",
      "type": "function"
    }
  ],
  "bytecode": "0x6080604052348015600e575f5ffd5b506108bf8061001c5f395ff3fe608060405260043610610033575f3560e01c806327506f53146100375780632e7700f014610061578063cc2d7ead1461007d575b5f5ffd5b348015610042575f5ffd5b5061004b610092565b60405161005891906104e2565b60405180910390f35b34801561006c575f5ffd5b505f54604051908152602001610058565b61009061008b366004610643565b610247565b005b60606001805480602002602001604051908101604052809291908181526020015f905b8282101561023e575f8481526020908190206040805160c0810182526006860290920180546001600160a01b03908116845260018201541693830193909352600283015490820152600382018054919291606084019190610115906106ce565b80601f0160208091040260200160405190810160405280929190818152602001828054610141906106ce565b801561018c5780601f106101635761010080835404028352916020019161018c565b820191905f5260205f20905b81548152906001019060200180831161016f57829003601f168201915b50505050508152602001600482015481526020016005820180546101af906106ce565b80601f01602080910402602001604051908101604052809291908181526020018280546101db906106ce565b80156102265780601f106101fd57610100808354040283529160200191610226565b820191905f5260205f20905b81548152906001019060200180831161020957829003601f168201915b505050505081525050815260200190600101906100b5565b50505050905090565b82341461028d5760405162461bcd60e51b815260206004820152600f60248201526e082dadeeadce840dad2e6dac2e8c6d608b1b60448201526064015b60405180910390fd5b60015f5f82825461029e9190610706565b90915550506040805160c0810182523381526001600160a01b03868116602083019081529282018681526060830186815242608085015260a084018690526001805480820182555f91909152845160069091027fb10e2d527612073b26eecdfd717e6a320cf44b4afac2b0732d9fcbe2b7fa0cf6810180549286166001600160a01b031993841617815596517fb10e2d527612073b26eecdfd717e6a320cf44b4afac2b0732d9fcbe2b7fa0cf7820180549190961692169190911790935590517fb10e2d527612073b26eecdfd717e6a320cf44b4afac2b0732d9fcbe2b7fa0cf8830155519192917fb10e2d527612073b26eecdfd717e6a320cf44b4afac2b0732d9fcbe2b7fa0cf9909101906103b59082610777565b506080820151600482015560a082015160058201906103d49082610777565b5050505f846001600160a01b0316346040515f6040518083038185875af1925050503d805f8114610420576040519150601f19603f3d011682016040523d82523d5f602084013e610425565b606091505b505090508061046c5760405162461bcd60e51b8152602060048201526013602482015272115512081d1c985b9cd9995c8819985a5b1959606a1b6044820152606401610284565b7f416cfa4330a4565f45c2fd2dd4826a83a37443aba2ce6f79477c7355afac35fa3386868642876040516104a596959493929190610832565b60405180910390a15050505050565b5f81518084528060208401602086015e5f602082860101526020601f19601f83011685010191505092915050565b5f602082016020835280845180835260408501915060408160051b8601019250602086015f5b8281101561059857603f19878603018452815160018060a01b03815116865260018060a01b03602082015116602087015260408101516040870152606081015160c0606088015261055c60c08801826104b4565b90506080820151608088015260a0820151915086810360a088015261058181836104b4565b965050506020938401939190910190600101610508565b50929695505050505050565b634e487b7160e01b5f52604160045260245ffd5b5f82601f8301126105c7575f5ffd5b813567ffffffffffffffff8111156105e1576105e16105a4565b604051601f8201601f19908116603f0116810167ffffffffffffffff81118282101715610610576106106105a4565b604052818152838201602001851015610627575f5ffd5b816020850160208301375f918101602001919091529392505050565b5f5f5f5f60808587031215610656575f5ffd5b84356001600160a01b038116811461066c575f5ffd5b935060208501359250604085013567ffffffffffffffff81111561068e575f5ffd5b61069a878288016105b8565b925050606085013567ffffffffffffffff8111156106b6575f5ffd5b6106c2878288016105b8565b91505092959194509250565b600181811c908216806106e257607f821691505b60208210810361070057634e487b7160e01b5f52602260045260245ffd5b50919050565b8082018082111561072557634e487b7160e01b5f52601160045260245ffd5b92915050565b601f82111561077257805f5260205f20601f840160051c810160208510156107505750805b601f840160051c820191505b8181101561076f575f815560010161075c565b50505b505050565b815167ffffffffffffffff811115610791576107916105a4565b6107a58161079f84546106ce565b8461072b565b6020601f8211600181146107d7575f83156107c05750848201515b5f19600385901b1c1916600184901b17845561076f565b5f84815260208120601f198516915b8281101561080657878501518255602094850194600190920191016107e6565b508482101561082357868401515f19600387901b60f8161c191681555b50505050600190811b01905550565b6001600160a01b038781168252861660208201526040810185905260c0606082018190525f90610864908301866104b4565b84608084015282810360a084015261087c81856104b4565b999850505050505050505056fea26469706673582212206ece3cd9fb1f1542e87ce96406457132c221a3c128240403eda06d05fe09819a64736f6c634300081c0033",
  "linkReferences": {},
  "deployedLinkReferences": {},
  "immutableReferences": {},
  "inputSourceName": "project/contracts/Transactions.sol",
  "buildInfoId": "solc-0_8_28-8d8d1088b87d3ec9bc55d4c4d55c537122670e4e"
}